:100000000C9436000C945E000C945E000C945E0020
:100010000C945E000C945E000C945E000C945E00E8
:100020000C945E000C945E000C945E000C945E00D8
:100030000C945E000C945E000C945E000C945E00C8
:100040000C94EF020C945E000C945F030C94390343
:100050000C945E000C945E000C945E000C945E00A8
:100060000C945E000C945E009103050511241FBEE4
:10007000CFEFD8E0DEBFCDBF21E0AEE1B1E001C0FF
:100080001D92A83DB207E1F711E0A0E0B1E0EAE679
:10009000FFE002C005900D92AE31B107D9F710E034
:1000A000C5E3D0E004C02197FE010E94A605C43339
:1000B000D107C9F70E94C5030C94A8070C9400004F
:1000C0003FB7F8948091230190912401A0912501DC
:1000D000B091260126B5A89B05C02F3F19F00196C7
:1000E000A11DB11D3FBFBA2FA92F982F8827820FBE
:1000F000911DA11DB11DBC01CD0142E0660F771F0E
:10010000881F991F4A95D1F708950895CF92DF92DD
:10011000EF92FF920F931F93CF93DF936C017A01BD
:100120008B01C0E0D0E0CE15DF0581F0D8016D91E4
:100130008D01D601ED91FC910190F081E02DC60179
:100140000995892B11F02196EECF7E01C701DF9131
:10015000CF911F910F91FF90EF90DF90CF90089576
:1001600080E090E00895FC01538D448D252F30E010
:10017000842F90E0821B930B541710F0CF960895B4
:1001800001970895FC01918D828D981761F0828D01
:10019000DF01A80FB11D5D968C91928D9F5F9F73BB
:1001A000928F90E008958FEF9FEF08952FB7F89406
:1001B0008091270190912801A0912901B0912A01F5
:1001C0002FBF8093330190933401A0933501B093F6
:1001D00036018BE291E00E94C20097FF26C02FB744
:1001E000F8948091270190912801A0912901B09164
:1001F0002A012FBF409133015091340160913501A4
:1002000070913601841B950BA60BB70B40912F0103
:10021000509130016091310170913201841795073E
:10022000A607B707B0F28FEF9FEF0895FC01918DFD
:10023000828D981731F0828DE80FF11D858D90E049
:1002400008958FEF9FEF0895FC01918D228D892FE6
:1002500090E0805C9F4F821B91098F7399270895CE
:100260008BE291E00E94240121E0892B09F420E037
:10027000822F0895FC01848DDF01A80FB11DA35AC0
:10028000BF4F2C91848D90E001968F739927848FB6
:10029000A689B7892C93A089B1898C9183708064D9
:1002A0008C93938D848D981306C00288F389E02D7A
:1002B00080818F7D80830895EF92FF920F931F932B
:1002C000CF93DF93EC0181E0888F9B8D8C8D981309
:1002D00005C0E889F989808185FD26C0F62E0B8D41
:1002E00010E00F5F1F4F0F731127E02E8C8DE81267
:1002F0000CC00FB607FCFACFE889F989808185FF29
:10030000F5CFCE010E943A01F1CF8B8DFE01E80FAF
:10031000F11DE35AFF4FF0829FB7F8940B8FEA89E3
:10032000FB89808180620AC09FB7F894EE89FF89BB
:100330006083E889F98980818370806480839FBFAE
:1003400081E090E0DF91CF911F910F91FF90EF90AE
:100350000895CF93DF93EC01888D8823C9F0EA8953
:10036000FB89808185FD05C0A889B9898C9186FDAE
:100370000FC00FB607FCF5CF808185FFF2CFA889AB
:10038000B9898C9185FFEDCFCE010E943A01E7CF6C
:10039000DF91CF91089580E090E0892B29F00E94B1
:1003A000300181110C9400000895009769F0FC0160
:1003B00001900020E9F73197AF01481B590BBC01B0
:1003C0008BE291E00C94860080E090E008958F929B
:1003D0009F92AF92BF920F931F93CF93DF93CDB7AE
:1003E000DEB7A1970FB6F894DEBF0FBECDBF19A23E
:1003F000423008F44AE08E010F5D1F4F842E912C8D
:10040000A12CB12CA50194010E948405E62FB9010D
:10041000CA0101501109EA3014F4E05D01C0E95C41
:10042000D801EC93232B242B252B61F7C8010E94C4
:10043000D501A1960FB6F894DEBF0FBECDBFDF91F8
:10044000CF911F910F91BF90AF909F908F90089583
:100450000F931F93CF93DF938C01EB01FC018081FD
:100460009181009739F06881798161157105A1F456
:100470000E94440688819981F801918380838A8152
:100480009B81938382838C819D8195838483198250
:1004900018821B821A820FC0F801428153812C817D
:1004A0003D814217530720F30E94A1078C819D8153
:1004B000F801958384831D821C82DF91CF911F9167
:1004C0000F9108950E9493070F931F93CF93DF938B
:1004D000EC0188819981009729F02A813B812617B8
:1004E000370788F48B016F5F7F4F0E94CD0600971E
:1004F00061F0998388831B830A832C813D81232BA0
:1005000011F4FC01108281E001C080E0DF91CF9105
:100510001F910F910895CF93DF93EC0119821882F8
:100520001B821A821D821C8260E070E00E946402BD
:100530002881398181110FC02115310519F0C901B8
:100540000E944406198218821D821C821B821A8214
:10055000DF91CF9108951D821C826CE171E0C90189
:10056000DF91CF910C94A107EF92FF920F931F930D
:10057000CF93DF9300D0CDB7DEB78C010E948B0202
:100580000E94D60097FD21C08C329105F1F089833D
:100590001A82F801E480F580FFEFEF1AFF0AB70135
:1005A000C8010E946402882359F3F8012081318137
:1005B00084819581BE016F5F7F4F820F931F0E94E0
:1005C000A107F801F582E482DBCFC8010F900F90FC
:1005D000DF91CF911F910F91FF90EF9008951F929F
:1005E0000F920FB60F9211242F933F938F939F93E7
:1005F000AF93BF938091270190912801A091290189
:10060000B0912A013091220123E0230F2D3720F4ED
:100610000196A11DB11D05C026E8230F0296A11D5C
:10062000B11D209322018093270190932801A0936C
:100630002901B0932A018091230190912401A09176
:100640002501B09126010196A11DB11D80932301C2
:1006500090932401A0932501B0932601BF91AF91FF
:100660009F918F913F912F910F900FBE0F901F90F0
:1006700018951F920F920FB60F9211242F933F934C
:100680004F935F936F937F938F939F93AF93BF939A
:10069000EF93FF938BE291E00E943A01FF91EF917B
:1006A000BF91AF919F918F917F916F915F914F918A
:1006B0003F912F910F900FBE0F901F9018951F9292
:1006C0000F920FB60F9211242F938F939F93EF9356
:1006D000FF93E0913B01F0913C018081E091410169
:1006E000F091420182FD12C09081809144018F5FA0
:1006F0008F7320914501821751F0E0914401F0E0A1
:10070000E55DFE4F958F8093440101C08081FF918C
:10071000EF919F918F912F910F900FBE0F901F908F
:100720001895EBE2F1E01382128288EE93E0A0E0EC
:10073000B0E084839583A683B7838AE091E09183B8
:10074000808385EC90E09587848784EC90E09787A0
:10075000868780EC90E0918B808B81EC90E0938B8E
:10076000828B82EC90E0958B848B86EC90E0978B6B
:10077000868B118E128E138E148E8EEC91E00E9459
:100780008B0288EC91E00C948B02CF93DF9300D026
:1007900000D000D0CDB7DEB7789484B5826084BD38
:1007A00084B5816084BD85B5826085BD85B5816075
:1007B00085BD80916E00816080936E0010928100F3
:1007C00080918100826080938100809181008160AE
:1007D000809381008091800081608093800080916F
:1007E000B10084608093B1008091B00081608093FB
:1007F000B00080917A00846080937A0080917A00C2
:10080000826080937A0080917A00816080937A0080
:1008100080917A00806880937A001092C100E09104
:100820003B01F0913C0182E08083E0913701F0913F
:1008300038011082E0913901F0913A018FEC808308
:1008400010924301E0913F01F091400186E08083E6
:10085000E0913D01F0913E01808180618083E091D3
:100860003D01F0913E01808188608083E0913D01EF
:10087000F0913E01808180688083E0913D01F0919C
:100880003E0180818F7D808380E4B82E8BE291E0F1
:100890000E942401181619060CF0B4C0CE0101966E
:1008A0000E94B402BE016F5F7F4F8EEC91E00E9408
:1008B000280289819A810E9444068BE291E00E947D
:1008C000C200CE0101960E94B402BE016F5F7F4F4D
:1008D00088EC91E00E94280289819A810E94440656
:1008E0008091CE019091CF01009719F00E941105DF
:1008F00003C060E070E0CB017093210160932001A0
:100900008091C8019091C901009719F00E941105CA
:1009100003C060E070E0CB0170931F0160931E0183
:1009200000E010E080911E0190911F018017910757
:1009300008F468C00E9460004AE00E94E70188E174
:1009400091E00E94D501B0927C0080917A00806491
:1009500080937A0080917A0086FDFCCF80917800A8
:100960002091790090E0922B6C01092E000CEE088A
:10097000FF0897FF0EC06DE28BE291E00E945C01E0
:1009800066277727CB016C197D098E099F094AE0FC
:1009900003C04AE0C701B6010E94E7018AE191E085
:1009A0000E94D501C0902001D0902101E12CF12CB2
:1009B0000E9460002B013C01C114D104E104F10448
:1009C000F1F00E946000DC01CB0184199509A609B1
:1009D000B709883E9340A105B10570F321E0C21A22
:1009E000D108E108F10888EE480E83E0581E611C2A
:1009F000711CC114D104E104F10419F7DDCF0F5FBC
:100A00001F4F90CF0E94CB0141CF8091C8019091A0
:100A1000C9010E9444068091CE019091CF010C94AF
:100A200044061F93FC0199278827BC01E894119183
:100A30001032E9F3193010F01E30C8F31B3251F0B8
:100A40001D3249F4689406C00E943805610F711D7B
:100A5000811D911D119110531A30B0F33EF4909501
:100A60008095709561957F4F8F4F9F4F1F9108958F
:100A7000592F482F372F262F660F771F881F991F52
:100A8000660F771F881F991F620F731F841F951FA2
:100A9000660F771F881F991F08952F923F924F92DC
:100AA0005F926F927F928F929F92AF92BF92CF92FE
:100AB000DF92EF92FF920F931F93CF93DF93CDB707
:100AC000DEB7CA1BDB0B0FB6F894DEBF0FBECDBF7F
:100AD00009942A88398848885F846E847D848C8450
:100AE0009B84AA84B984C884DF80EE80FD800C8159
:100AF0001B81AA81B981CE0FD11D0FB6F894DEBF3C
:100B00000FBECDBFED010895A1E21A2EAA1BBB1B9B
:100B1000FD010DC0AA1FBB1FEE1FFF1FA217B307C9
:100B2000E407F50720F0A21BB30BE40BF50B661FDF
:100B3000771F881F991F1A9469F7609570958095A3
:100B400090959B01AC01BD01CF010895EE0FFF1FF1
:100B50000590F491E02D09940F931F93CF93DF93A9
:100B60008230910510F482E090E0E091D601F0919E
:100B7000D70120E030E0A0E0B0E0309719F14081EB
:100B800051810281138148175907C8F084179507CE
:100B900069F4109731F012960C93129713961C93E8
:100BA00027C00093D6011093D70122C0211531052B
:100BB00019F04217530718F49A01BD01EF01DF0144
:100BC000F801DBCF21153105F9F0281B390B243052
:100BD000310580F48A819B816115710521F0FB014B
:100BE0009383828304C09093D7018093D601FE0142
:100BF000329644C0FE01E20FF31F8193919322507D
:100C00003109398328833AC02091D4013091D5012C
:100C1000232B41F420910201309103013093D5013F
:100C20002093D4012091000130910101211531055B
:100C300041F42DB73EB74091040150910501241BAA
:100C4000350BE091D401F091D501E217F307A0F440
:100C50002E1B3F0B2817390778F0AC014E5F5F4F12
:100C60002417350748F04E0F5F1F5093D50140936E
:100C7000D4018193919302C0E0E0F0E0CF01DF91D5
:100C8000CF911F910F910895CF93DF93009709F4AF
:100C900081C0FC01329713821282A091D601B091DB
:100CA000D701109781F420813181820F931F209109
:100CB000D4013091D5012817390751F5F093D501AA
:100CC000E093D40167C0ED0120E030E0CE17DF07EC
:100CD00040F44A815B819E0141155105F1F0EA0122
:100CE000F5CFD383C28340815181840F951FC817EC
:100CF000D90759F488819981840F951F02969183B1
:100D000080838A819B81938382832115310529F415
:100D1000F093D701E093D6013DC0E901FB83EA835C
:100D200049915991C40FD51FEC17FD0761F48081DB
:100D30009181840F951F0296E901998388838281AE
:100D400093819B838A83E0E0F0E012968D919C91E1
:100D50001397009719F0FD01DC01F7CF8D919C915D
:100D600011979D012E5F3F4F820F931F2091D40159
:100D70003091D5012817390769F4309729F410927A
:100D8000D7011092D60102C013821282B093D5010E
:100D9000A093D401DF91CF910895A0E0B0E0E3EDFE
:100DA000F6E00C945105EC01009721F4CB010E9470
:100DB000AC05B4C0FC01E60FF71F9C0122503109BD
:100DC000E217F30708F4A8C0D9010D911C911197FF
:100DD00006171707B0F00530110508F49BC0C801CD
:100DE00004978617970708F495C002501109061B4F
:100DF000170B019311936D937C93CF010E944406CE
:100E000089C05B01A01AB10A4C01800E911EA0910D
:100E1000D601B091D701612C712CE12CF12C1097E7
:100E200009F446C08D919C911197A815B905B1F5AB
:100E30006C0142E0C40ED11CCA14DB0478F14C01F1
:100E40008A189B08640142E0C40ED11C1296BC9023
:100E500012971396AC91B5E0CB16D10440F0B28254
:100E6000A38391828082D9016D937C9309C00E5F28
:100E70001F4F800F911FF90191838083EB2DFA2F73
:100E8000E114F10431F0D7011396FC93EE9312971D
:100E900041C0F093D701E093D6013CC068167906B3
:100EA00008F43C017D0112960D90BC91A02DB7CFA6
:100EB0008091D4019091D50188169906E1F46616C7
:100EC0007706C8F48091000190910101009741F4E8
:100ED0008DB79EB74091040150910501841B950B7D
:100EE000E817F907C8F4F093D501E093D401F901AC
:100EF000718360830FC0CB010E94AC057C01009719
:100F000059F0A801BE010E949807CE010E94440634
:100F1000C70104C0CE0102C080E090E0CDB7DEB7CB
:100F2000EEE00C946D0581E090E0F8940C94A80735
:100F3000FB01DC0102C001900D9241505040D8F7F6
:100F40000895FB01DC0101900D920020E1F7089566
:100F500010E0C5E3D0E004C0FE010E94A605219682
:0A0F6000C633D107C9F7F894FFCF9C
:100F6A000000D8018000000000005C018600B30088
:0E0F7A00A9012401C20016012C000D0A00007E
:00000001FF
